:1000000008308A0000280000D434ED32A037753A59
:1000100021004334E531EB39F536A02272396F39CE
:100020002100CE372039E539F037EE3965006639E1
:10003000EF36203AE832A0396537F33772004E3494
:10004000EF36A0183000B130840083130008031984
:1000500036280630F800F701F70B2C28F80B2B2870
:100060007B30F700F70B3228800B29280800831615
:10007000370EF039F7000F30831208057704880037
:10008000000008140230F700F70B4428472800004E
:10009000081008000808F700080E0F39F8000800DB
:1000A0008316081088100811831288100F308316E9
:1000B0000805F038880083120815000008140000B5
:1000C0004A2078088316B70083120810000008142D
:1000D00069286A2800004A2078088316B60083122F
:1000E00008100F30831608058800370EF700F0302F
:1000F000F70577083604F8007808B600B61F82289E
:100100008312562834188728831288108316341CCB
:100110008C288312881483160000831208110000B3
:1001200008108316350EB6000F30B6053608B70036
:1001300083123720831635080F39B600B7008312B3
:100140003720080028308316AD000C30AE00013097
:10015000AF000630B00083120810881008110F306D
:100160008316080588000810881008110F30B100A8
:100170008312232001308316AC002C08033C031C9F
:10018000CD280330B7008312372005308316B10025
:10019000831223208316AC0ABD280230B7008312D5
:1001A000372005308316B100831223208316AC015B
:1001B0002C08033C031CEA28AD302C078400831371
:1001C0000008B100B4013108B50083125020831635
:1001D000AC0AD82883128A150A12B9288316310B63
:1001E000F228F5284030B200F628B2010130300282
:1001F000B20732088038B300B4013308B500831267
:100200005020080083162F08073A83120319122979
:100210000B3A03191929063A03192529023A031939
:100220002D29342901308316B000B1008312EE204D
:100230003B298316B4010130B500831250200230EF
:100240008316B100831223203B2901308316B000AE
:100250000230B1008312EE203B298316B401103026
:10026000B500831250203B2901308316B4002F08BB
:10027000B5008312502008000B088316AC008312CF
:100280008B13831603178C170C1400000000031344
:10029000AC1F4D2983128B178316831203170C088A
:1002A0007F390319AE2983160313AC008312031799
:1002B0000D0883160313AD00831203170F0883166E
:1002C0000313AE002C08AF008312022183162D0801
:1002D000831203178D00831603132E08831203174E
:1002E0008F0003130B088316AF0083128B13831642
:1002F00003178C170C14000000000313AF1F832991
:1003000083128B178316831203170C0D0E0D7F3982
:100310000319AE2983160313AC00831203170D08CB
:1003200083160313AD00831203170F0883160313FC
:10033000AE002C08AF008312022183162D08831211
:1003400003178D00831603132E08831203178F00E3
:100350008D0A03198F0A03133C290317031308009E
:100360008316881583128819C1298316881583126C
:10037000881DB529FE0A7E08053C0318C1290130F5
:10038000FE008A150A12D528F801F901F701FA01D1
:1003900083163108031DCF2930080319E9291030CD
:1003A000B2000310AE0DAF0DF70DFA0D31087A0251
:1003B000031DDC2930087702031CE5293008F70209
:1003C000031CFA033108FA020314F80DF90DB20BFD
:1003D000D1298312080080080319072A8316AD016A
:1003E0000408AC002D10831B2D140008AF008312ED
:1003F000022183162C08840083132D188317840A86
:10040000031D052A8312850A83168312EB2908002F
:100410008316AE01741C0C2AAC012C08073C031C8B
:10042000582AAD0183120618192A162A172A000025
:10043000132A3130F700F70B1B2A1E2A0618332A1D
:1004400083162C08073CAF000130F7002F08F80096
:1004500003192E2A0310F70DF80B2A2A7708FF3A02
:10046000AE05542A831283162C08073CAF000130D6
:10047000F7002F08F8000319412A0310F70DF80BB5
:100480003D2A7708AE048312061C552A8316AD0A4E
:100490002D08643C0318502A74148312552A8316BD
:1004A000512A522A0000432A83128316AC0A0D2ACD
:1004B0002E08F8008312080004308316AC00FA30CE
:1004C000B100831223208316AC0B5F2A7410061030
:1004D0008312061019308316B100831223200614EC
:1004E0003130F700F70B722A752A83160614423052
:1004F000F700F70B792A0000831206188F2A843040
:10050000F700F70B812A842A0000061C8F2A52303C
:10051000F700F70B892A8C2A00000130F800F80850
:100520000319C22B08227808FB0008227808FC0077
:1005300008227808F50008227808F60008227808D2
:10054000FD00741CB72A0C308316AF008312022101
:1005500005308316B0000130B1008312EE20043064
:1005600003178D0000308F0003133C21C12B7C0842
:100570007B07750776077D02031DAF2B8316A3014A
:100580007B08A2002208AD00AC012C087C04A2006C
:100590002D08A300A1017508A0002008AD00AC0142
:1005A0002C087604A0002D08A1007F3C0318E52A42
:1005B000FF3A031DDF2A2008003C0318E52A2D30EE
:1005C0008312A6008316A113E92A20308312A60005
:1005D00083162108AF002008AE00B1016430B000DE
:1005E0008312C42179088316AD007808AC002D0869
:1005F000AF002C08AE00B1010A30B0008312C42154
:1006000077088316AC007A08AD0030302C078312CF
:10061000A70083162108AF002008AE00B1010A3000
:10062000B0008312C42179088316AD007808AC00AD
:100630002D08AF002C08AE00B1010A30B0008312C3
:10064000C42177088316AC007A08AD0030302C073F
:100650008312A80083162108AF002008AE00B10164
:100660000A30B0008312C42177088316AC007A08E0
:10067000AD0030302C078312AA0083162308AF0088
:100680002208AE00B1016430B0008312C4217908A1
:100690008316AD007808AC002D08AF002C08AE0022
:1006A000B1010A30B0008312C42177088316AC0070
:1006B0007A08AD0030302C078312B500831623086A
:1006C000AF002208AE00B1010A30B0008312C4218D
:1006D00079088316AD007808AC002D08AF002C080F
:1006E000AE00B1010A30B0008312C421770883162E
:1006F000AC007A08AD0030302C078312B6008316A8
:100700002308AF002208AE00B1010A30B000831206
:10071000C42177088316AC007A08AD0030302C076E
:100720008312B800DF30AB000C308316AF008312A9
:10073000022101308316B000B1008312EE20203078
:1007400084008313EB2101308316B0000230B10026
:100750008312EE202E3084008313EB21C12B0C304A
:100760008316AF008312022101308316B000B1005E
:100770008312EE20093003178D0000308F00031321
:100780003C21E32B0C308316AF008312022103308F
:100790008316B0000130B1008312EE201130031730
:1007A0008D0000308F0003133C2101308316B00010
:1007B0000230B1008312EE20173003178D00003095
:1007C0008F0003133C218A150A12A92C80080319F3
:1007D000032C8316AD010408AC002D10831B2D14CF
:1007E000000883120C1EF22B990083162C0884003B
:1007F00083132D188317840A031D012C8312850A85
:0808000083168312E62B0800A9
:1010000003081F398300203083169900A63098000A
:101010009030831298008316A501A4010130A70027
:101020002C30A600A901A8010130AB00F430AA00C1
:10103000FE011F149F141F159F1107309C0083137E
:1010400054308312A0006530A1006D30A2007030D2
:10105000A3002030A4003D30A5002030A600303091
:10106000A700A8002E30A9003030AA002030AB0025
:101070004330AC00AD015230AE004830AF002030FC
:10108000B000B100B2003D30B3002030B4003030C9
:10109000B500B6002E30B7003030B8002030B900AF
:1010A0002530BA00BB015430BC006530BD006D3046
:1010B000BE003130BF002030C0003D30C1002030C4
:1010C000C2003030C300C4002E30C5003030C6002E
:1010D0002030C7004330C800C9015430CA00653011
:1010E000CB006D30CC003230CD002030CE003D3012
:1010F000CF002030D0003030D100D2002E30D300CD
:101100003030D4002030D5004330D600D7014830ED
:10111000D8003130D9002030DA00DB00DC003D306F
:10112000DD002030DE003030DF00E0002E30E10056
:101130003030E2002030E3002530E400E5014830A3
:10114000E6003230E7002030E800E900EA003D30F8
:10115000EB002030EC003030ED00EE002E30EF00E0
:101160003030F0002030F1002530F200F3018A1118
:10117000A2288A150C308316AF008A11831202212F
:101180008A1505308316B0000130B1008A11831230
:10119000EE208A151F3003178D0000308F008A1152
:1011A00003133C218A158A11B0298A158316270852
:1011B000AF002608AE00B1016430B0008A1183127E
:1011C000C4218A1579088316AD007808AC002D0873
:1011D000AF002C08AE00B1010A30B0008A118312B2
:1011E000C4218A1577088316AC007A08AD00303028
:1011F0002C078312D10083162708AF002608AE0003
:10120000B1010A30B0008A118312C4218A1579080D
:101210008316AD007808AC002D08AF002C08AE0096
:10122000B1010A30B0008A118312C4218A157708EF
:101230008316AC007A08AD0030302C078312D20040
:1012400083162708AF002608AE00B1010A30B000AF
:101250008A118312C4218A1577088316AC007A0894
:10126000AD0030302C078312D400DF30D500831658
:101270002508AF002408AE00B1016430B0008A1127
:101280008312C4218A1579088316AD007808AC0052
:101290002D08AF002C08AE00B1010A30B0008A1151
:1012A0008312C4218A1577088316AC007A08AD0032
:1012B00030302C078312C30083162508AF002408A2
:1012C000AE00B1010A30B0008A118312C4218A1520
:1012D00079088316AD007808AC002D08AF002C0803
:1012E000AE00B1010A30B0008A118312C4218A1500
:1012F00077088316AC007A08AD0030302C078312D3
:10130000C40083162508AF002408AE00B1010A30DE
:10131000B0008A118312C4218A1577088316AC00A5
:101320007A08AD0030302C078312C600DF30C700CA
:1013300083162908AF002808AE00B1016430B00060
:101340008A118312C4218A1579088316AD007808A2
:10135000AC002D08AF002C08AE00B1010A30B0007F
:101360008A118312C4218A1577088316AC007A0883
:10137000AD0030302C078312DF0083162908AF0040
:101380002808AE00B1010A30B0008A118312C421CE
:101390008A1579088316AD007808AC002D08AF00D7
:1013A0002C08AE00B1010A30B0008A118312C421AA
:1013B0008A1577088316AC007A08AD0030302C0708
:1013C0008312E00083162908AF002808AE00B1019F
:1013D0000A30B0008A118312C4218A157708831657
:1013E000AC007A08AD0030302C078312E20083167F
:1013F0002B08AF002A08AE00B1016430B0008A119A
:101400008312C4218A1579088316AD007808AC00D0
:101410002D08AF002C08AE00B1010A30B0008A11CF
:101420008312C4218A1577088316AC007A08AD00B0
:1014300030302C078312ED0083162B08AF002A08EA
:10144000AE00B1010A30B0008A118312C4218A159E
:1014500079088316AD007808AC002D08AF002C0881
:10146000AE00B1010A30B0008A118312C4218A157E
:1014700077088316AC007A08AD0030302C07831251
:10148000EE0083162B08AF002A08AE00B1010A3027
:10149000B0008A118312C4218A1577088316AC0024
:1014A0007A08AD0030302C07F00001307E02FB3EA0
:1014B0000318232D053E8312262D8316051483124F
:1014C00005186E2A831605148312051C622A6430DF
:1014D0008316A4070318A50AC42A83128316851449
:1014E000831285187F2A831685148312851C732A1C
:1014F0000A308316A4070318A50AC42A8312831688
:101500000515831205198F2A831605158312051DEB
:10151000842A8316A40A0319A50AC42A83128316EF
:10152000851583128519A22A831685158312851DB8
:10153000942A64308316A4020030031C0130A502F3
:10154000C42A8312831605168312051AB52A831638
:1015500005168312051EA72A0A308316A40200303E
:10156000031C0130A502C42A831283168516831238
:10157000851AC52A831685168312851EBA2A8316F4
:1015800024080319A503A403831201308316B000B5
:10159000B1008A118312EE208A153C308400831337
:1015A0008A11EB218A1501308316B0000230B10098
:1015B0008A118312EE208A154A30840083138A111F
:1015C000EB218A1583162508003C0318EE2AFF3A02
:1015D000031D5E2A24082C3C031C5E2A232D831243
:1015E0008316051483120518012B83160514831224
:1015F000051CF52A64308316A6070318A70A572B83
:1016000083128316851483128518122B8316851472
:101610008312851C062B0A308316A6070318A70A17
:10162000572B83128316051583120519222B831657
:1016300005158312051D172B8316A60A0319A70A81
:10164000572B83128316851583128519352B831624
:1016500085158312851D272B64308316A602003062
:10166000031C0130A702572B831283160516831221
:10167000051A482B831605168312051E3A2B0A30CD
:101680008316A6020030031C0130A702572B8312D9
:10169000831685168312851A582B83168516831296
:1016A000851E4D2B831626080319A703A603831254
:1016B00001308316B000B1008A118312EE208A1522
:1016C0003C30840083138A11EB218A150130831684
:1016D000B0000230B1008A118312EE208A154A3020
:1016E000840083138A11EB218A1583162708013C95
:1016F000031C802B031DF12A26082C3C0318F12A19
:10170000232D83128316051483120518932B831639
:1017100005148312051C872B64308316A807031851
:10172000A90AE92B83128316851483128518A42B2A
:10173000831685148312851C982B0A308316A807FC
:101740000318A90AE92B83128316051583120519BC
:10175000B42B831605158312051DA92B8316A80A21
:101760000319A90AE92B831283168515831285199B
:10177000C72B831685158312851DB92B64308316FC
:10178000A8020030031C0130A902E92B8312831642
:1017900005168312051ADA2B831605168312051E09
:1017A000CC2B0A308316A8020030031C0130A9029A
:1017B000E92B8312831685168312851AEA2B83166A
:1017C00085168312851EDF2B831628080319A903AB
:1017D000A803831201308316B000B1008A1183126E
:1017E000EE208A155830840083138A11EB218A1564
:1017F00001308316B0000230B1008A118312EE204E
:101800008A156630840083138A11EB218A158316AA
:101810002908003C0318132CFF3A031D832B2808CA
:10182000F43C031C832B232D83128316051483128F
:101830000518262C831605148312051C1A2C6430F7
:101840008316AA070318AB0A7C2C8312831685140F
:1018500083128518372C831685148312851C2B2C34
:101860000A308316AA070318AB0A7C2C831283164E
:10187000051583120519472C831605158312051DBE
:101880003C2C8316AA0A0319AB0A7C2C83128316FC
:101890008515831285195A2C831685158312851D8B
:1018A0004C2C64308316AA020030031C0130AB02BA
:1018B0007C2C8312831605168312051A6D2C831651
:1018C00005168312051E5F2C0A308316AA0200300B
:1018D000031C0130AB027C2C831283168516831205
:1018E000851A7D2C831685168312851E722C83160D
:1018F0002A080319AB03AA03831201308316B00030
:10190000B1008A118312EE208A15583084008313A7
:101910008A11EB218A1501308316B0000230B10024
:101920008A118312EE208A156630840083138A118F
:10193000EB218A1583162B08013C031CA52C031DE3
:10194000162C2A08F43C0318162C232D83128A1116
:101950005C2A8A152030840083138A11E6238A15B5
:101960000D300C1EB12C99000A300C1EB52C9900BC
:101970002E30840083138A11E6238A150D300C1E45
:10198000BF2C99000A300C1EC32C99008316230823
:101990002902031CDA2C031DD12C2808220203186B
:1019A000DA2C86118312861583160612831206120C
:1019B000F42C83162B082302031CED2C031DE42CAE
:1019C00022082A020318ED2C06128312061683162B
:1019D000861183128611F42C8316061283120612C6
:1019E0008316861183128611831621082502031C93
:1019F000082D031DFF2C240820020318082D861033
:101A0000831286148316061183120611222D831663
:101A100027082102031C1B2D031D122D200826025E
:101A200003181B2D061183120615831686108312C8
:101A30008610222D831686108312861083160611B7
:101A40008312061183168312D32863000A148A10A6
:0E1A50000A1582075D2AF02A822B152CA72C7E
:02400E00723FFF
:00000001FF
;PIC16F877A
;CRC=3382  CREATED="21-Oct-21 14:40"
